:100000000C942A000C9447000C9447000C94470071
:100010000C94E1000C94BA000C9447000C94470037
:100020000C9447000C9447000C9493000C946C00C3
:100030000C9447000C9447000C9447000C94470024
:100040000C9447000C9447000C9447000C94470014
:100050000C94470011241FBECFE5D8E0DEBFCDBF12
:1000600010E0A0E6B0E0E6EFF3E002C005900D92EC
:10007000AA36B107D9F720E0AAE6B0E001C01D9288
:10008000A337B207E1F70E9451000C94F9010C94D8
:1000900000008FEF87BB88BB08958FEF84BB85BBC3
:1000A000089585E690E00E94080180E690E00E94B5
:1000B000080164E685E690E00E94C10162E380E603
:1000C00090E00E94DD0185E690E00E949E0180E6BE
:1000D00090E00E949E01FFCF1F920F920FB60F92E9
:1000E00011242F933F934F935F936F937F938F933D
:1000F0009F93AF93BF93EF93FF93E0916A00F091CA
:100100006B000995FF91EF91BF91AF919F918F91F6
:100110007F916F915F914F913F912F910F900FBE03
:100120000F901F9018951F920F920FB60F921124E7
:100130002F933F934F935F936F937F938F939F93EF
:10014000AF93BF93EF93FF93E0916C00F0916D003C
:100150000995FF91EF91BF91AF919F918F917F9101
:100160006F915F914F913F912F910F900FBE0F9024
:100170001F9018951F920F920FB60F9211242F9374
:100180003F934F935F936F937F938F939F93AF931F
:10019000BF93EF93FF93E0916E00F0916F0009958C
:1001A000FF91EF91BF91AF919F918F917F916F914F
:1001B0005F914F913F912F910F900FBE0F901F9025
:1001C00018951F920F920FB60F9211242F933F9301
:1001D0004F935F936F937F938F939F93AF93BF934F
:1001E000EF93FF93E0917000F09171000995FF91FA
:1001F000EF91BF91AF919F918F917F916F915F919F
:100200004F913F912F910F900FBE0F901F90189517
:10021000009709F480C0FC012181222309F47DC0EC
:100220002081222309F47BC03281332309F479C071
:1002300083819481009709F476C0233599F5313094
:1002400071F490936B0080936A0083B7877B83BFC0
:1002500089B7816089BF81E0809372006BC03330C1
:1002600039F483B7886083BF1092720081E062C066
:10027000323071F490936D0080936C0083B780648A
:1002800083BF89B7826089BF1092720081E052C03B
:10029000343009F04AC083B7886483BF109272007B
:1002A00081E048C0253409F042C0313079F49093A0
:1002B0006F0080936E0085B5877B85BD89B78064AC
:1002C00089BF82E08093720081E034C0333041F412
:1002D00085B5886085BD82E08093720081E02AC088
:1002E000323079F4909371008093700085B580640A
:1002F00085BD89B7806889BF82E08093720081E004
:1003000019C03430B1F485B5886485BD82E080932E
:10031000720081E00FC08DEC0DC08DEC0BC08DEC38
:1003200009C08DEC07C08DEC05C08BEC03C08DECD3
:1003300001C08BEC9FB790689FBF08950097C9F0EC
:10034000209172002223B9F0FC012081233531F481
:1003500023B78181822B83BF81E008952F3469F018
:10036000253469F425B5FC018181822B85BD81E0AE
:10037000089580E0089580E0089581E008958CEC70
:100380000895009791F020917200222381F0FC01E2
:100390008081833519F462BF81E008958F3449F07C
:1003A000853449F464BD81E0089580E0089580E0DB
:1003B000089581E008958CEC0895009791F02091C4
:1003C0007200222381F0FC018081833519F46CBF17
:1003D00081E008958F3449F0853449F463BD81E0AC
:1003E000089580E0089580E0089581E008958CEC00
:0603F0000895F894FFCF10
:0A03F6004505024D005305014900C2
:00000001FF
