:100000000C942A000C9447000C9447000C94470071
:100010000C9447000C9447000C9447000C94470044
:100020000C9447000C9447000C9447000C94470034
:100030000C9447000C94AD000C9447000C944700BE
:100040000C9447000C9447000C9447000C94470014
:100050000C94470011241FBECFE5D8E0DEBFCDBF12
:1000600010E0A0E6B0E0EAE2F2E002C005900D92F6
:10007000A236B107D9F720E0A2E6B0E001C01D9298
:10008000A137B207E1F70E94A2000C9413010C946F
:10009000000080916300909164009C012F5F3F4FAE
:1000A00030936400209363008B599F4F0E94080196
:1000B00081E080936C00089569E470E080E690E050
:1000C0000E94D40081E008951092620081E00895BA
:1000D00080916C008130A1F580916200823081F0C6
:1000E0008330F1F081112CC0809163009091640005
:1000F000079718F482E08093620010926C0020C091
:100100008091630090916400079720F083E08093D2
:10011000620003C082E08093620010926C0010C005
:100120008091630090916400079740F085E690E02D
:1001300090936E0080936D001092620010926C009C
:1001400081E008958FEF84BB0E945C000E946400F0
:100150000E9468008CB185BBFBCF1F920F920FB637
:100160000F9211242F933F934F935F936F937F933D
:100170008F939F93AF93BF93EF93FF93E0916F00A3
:10018000F09170000995FF91EF91BF91AF919F9110
:100190008F917F916F915F914F913F912F910F9030
:1001A0000FBE0F901F901895009761F161157105B2
:1001B00059F17093700060936F002AB128612AB9D9
:1001C00020B5266820BDFC01808191818038F5E250
:1001D0009F0759F483E389B910BC8AB1806E8AB94C
:1001E0008FB780688FBF81E00895803629E092073D
:1001F00019F419B881E00895803C924139F419B896
:1002000081E0089580E0089580E0089580E00895F9
:10021000009739F05F9BFECF2CB1FC01208381E079
:0A022000089580E00895F894FFCFE0
:02022A0080252D
:00000001FF
