S02A00005761766547656E65726174696F6E5F5371756172655F4E4D5F4354435F6D6F6465732E73726563E1
S11300000C942A000C943C000C943C000C943C008E
S11300100C943C000C943C000C943C000C943C006C
S11300200C943C000C943C000C943E000C943C005A
S11300300C943C000C943C000C943C000C943C004C
S11300400C943C000C943C000C943C000C943C003C
S11300500C943C0011241FBECFE5D8E0DEBFCDBF19
S113006020E0A0E6B0E001C01D92A136B207E1F79E
S11300700E9475000C9486000C9400001F920F924D
S11300800FB60F9211248F939F93EF93FF93CF9307
S1130090DF9300D000D0CDB7DEB788E1898381E358
S11300A08A8387E28B8382E28C8380916000FE01E5
S11300B0E80FF11D91819CBF982F9F5F943018F435
S11300C09093600003C08E5F809360000F900F9048
S11300D00F900F90DF91CF91FF91EF919F918F91AE
S11300E00F900FBE0F901F9018958FEF8ABB87BBA0
S11300F082BB21E490E21FBC2EBD08B605FEFDCFF5
S113010098BF86B58BBB87B588BBF5CFF894FFCF76
S9030000FC
