:100000000C942A000C943E000C9452000C943C007A
:100010000C943C000C943C000C943C000C943C0070
:100020000C943C000C943C000C943C000C943C0060
:100030000C943C000C943C000C943C000C943C0050
:100040000C943C000C943C000C943C000C943C0040
:100050000C943C0011241FBECFE5D8E0DEBFCDBF1D
:1000600020E0A0E6B0E001C01D92A636B207E1F79D
:100070000E9470000C94C6000C9400001F920F9216
:100080000FB60F9211248F939F9381E090E090938D
:100090006300809362009F918F910F900FBE0F902D
:1000A0001F9018951F920F920FB60F9211248F93E5
:1000B0009F9381E090E090936100809360009F9116
:1000C0008F910F900FBE0F901F90189585B78F607E
:1000D00085BF8BB7806C8BBF8FB780688FBF08954B
:1000E0008A988B98B89AB99A8FEF8ABBC098C198B2
:1000F000809164008BBB0E94660031E0E4E6F0E092
:1001000022E080916200909163000197E1F4809178
:100110006000909161000197A1F780916400909137
:1001200065000196909365008093640088B38327EF
:1001300088BB80818BBB109261001092600010928E
:1001400063001092620080916000909161000197BD
:10015000C1F68091620090916300019791F68091C1
:10016000640090916500019790936500809364000E
:1001700088B3822788BB80818BBB1092630010926A
:1001800062001092610010926000BBCFF894FFCF24
:00000001FF
