S01500006B65797061645F6472697665722E73726563A6
S11300000C942A000C9434000C9434000C943400A6
S11300100C9434000C9434000C9434000C9434008C
S11300200C9434000C9434000C9434000C9434007C
S11300300C9434000C9434000C9434000C9434006C
S11300400C9434000C9434000C9434000C9434005C
S11300500C94340011241FBECFE5D8E0DEBFCDBF21
S11300600E94A8000C94B1000C940000883049F15F
S113007068F48430F1F030F4823099F1C0F48130C6
S113008089F513C08630C9F0D0F415C08C3009F15D
S113009020F48A30D1F0D8F416C08E30E1F010F19B
S11300A08F30D9F08031F1F41AC087E0089589E0E7
S11300B0089585E2089584E0089585E0089586E032
S11300C008958AE2089581E0089582E0089583E026
S11300D008958DE2089580E008958DE308958BE2FC
S11300E0089588E0089580E060E170E0E1E0F0E0E8
S11300F0A0E094B39B01082E02C0220F331F0A9480
S1130100E2F7922B94BB95B32095292325BB9899AC
S11301100DC09F01922F43B350E0022E02C05595AB
S113012047950A94E2F740FF09C001C090E08F5F51
S1130130990F990F890F0E94360008952F5F3F4F42
S11301402430310539F78F5F843098F28A2FD1CF6C
S11301508FEF87BB18BA0E9473008A30E0F788BB20
S1090160FACFF894FFCF72
S9030000FC
