S01600005350495F746573745F536C6176652E73726563A9
S11300000C942A000C943F000C943F000C943F0085
S11300100C943F000C943F000C943F000C943F0060
S11300200C943F000C943F000C943F000C943F0050
S11300300C9441000C943F000C943F000C943F003E
S11300400C943F000C943F000C943F000C943F0030
S11300500C943F0011241FBECFE5D8E0DEBFCDBF16
S113006010E0A0E6B0E0E2E3F1E002C005900D92FA
S1130070A836B107D9F70E9490000C9497000C940D
S113008000001F920F920FB60F9211248F939F932B
S11300908FEF8ABB9FB19BBB81BB8FB182BB9F910A
S11300A08F910F900FBE0F901F901895FC01009731
S11300B0A9F1BC98BD98BE9ABF988681813011F48D
S11300C06F9A01C06F988781813011F46D9A01C0D5
S11300D06D988081813011F46C9A01C06C98848190
S11300E0813011F46B9A01C06B988581813011F4D1
S11300F06A9A01C06A989DB18181892B8DB98381E7
S1130100813011F4709A01C070988281813011F4A9
S11301106E9A01C06E988FB780688FBF81E0089592
S11301208FEF8ABB80E690E00E945600FFCFF894E0
S1050130FFCFFB
S10B01320000010000010100BE
S9030000FC
