S01E0000436F666665655F4D61636861696E5F70726F6A6563742E7372656358
S11300000C942A000C944E000C9475000C949C00E3
S11300100C9447000C9447000C9447000C94470040
S11300200C9447000C9447000C9447000C94FD0179
S11300300C9447000C9447000C9447000C94470020
S11300400C94D1010C9447000C9447000C94470085
S11300500C94470011241FBECFE5D8E0DEBFCDBF0E
S113006010E0A0E6B0E0E2E5F7E002C005900D92F2
S1130070AE3AB107D9F720E0AEEAB0E001C01D9274
S1130080AA3BB207E1F70E9449000C94A7030C9421
S113009000000E9439030E946B03FFCF1F920F924E
S11300A00FB60F9211242F933F934F935F936F9347
S11300B07F938F939F93AF93BF93EF93FF93E091BD
S11300C0AE00F091AF000995FF91EF91BF91AF9110
S11300D09F918F917F916F915F914F913F912F915C
S11300E00F900FBE0F901F9018951F920F920FB68E
S11300F00F9211242F933F934F935F936F937F93AA
S11301008F939F93AF93BF93EF93FF93E091B000CE
S1130110F091B1000995FF91EF91BF91AF919F913B
S11301208F917F916F915F914F913F912F910F909C
S11301300FBE0F901F9018951F920F920FB60F923B
S113014011242F933F934F935F936F937F938F93D8
S11301509F93AF93BF93EF93FF93E091B200F0911D
S1130160B3000995FF91EF91BF91AF919F918F914A
S11301707F916F915F914F913F912F910F900FBE9F
S11301800F901F901895833031F0813021F0823028
S113019011F081117CC0423008F079C041113EC099
S11301A081110EC02AB381E090E0AC0102C0440F7B
S11301B0551F6A95E2F7BA01609562236ABB67C06E
S11301C0813071F427B381E090E0AC0102C0440FA8
S11301D0551F6A95E2F7BA016095622367BB57C061
S11301E0823071F424B381E090E0AC0102C0440F8A
S11301F0551F6A95E2F7BA016095622364BB47C054
S113020021B381E090E0AC0102C0440F551F6A9510
S1130210E2F7BA016095622361BB39C04130B9F598
S1130220813061F447B321E030E0C90102C0880F96
S1130230991F6A95E2F7842B87BB29C081110DC0F1
S11302402AB381E090E0AC0102C0440F551F6A95C7
S1130250E2F7BA01622B6ABB1AC0823061F444B37C
S113026021E030E0C90102C0880F991F6A95E2F7C6
S1130270842B84BB0CC021B381E090E0AC0102C0AC
S1130280440F551F6A95E2F7BA01622B61BB80E007
S11302900895833071F1813029F08230E9F08823A8
S11302A071F033C028B381E090E0AC0102C0440F88
S11302B0551F6A95E2F7BA01622B68BB26C02BB3BF
S11302C081E090E0AC0102C0440F551F6A95E2F74B
S11302D0BA01622B6BBB19C025B381E090E0AC017D
S11302E002C0440F551F6A95E2F7BA01622B65BB41
S11302F00CC022B381E090E0AC0102C0440F551F52
S11303006A95E2F7BA01622B62BB80E008958330FC
S113031089F1813029F08230F9F0882379F037C0EF
S113032028B381E090E0AC0102C0440F551F6A95E8
S1130330E2F7BA016095622368BB29C02BB381E060
S113034090E0AC0102C0440F551F6A95E2F7BA0170
S1130350609562236BBB1BC025B381E090E0AC01C8
S113036002C0440F551F6A95E2F7BA0160956223F3
S113037065BB0DC022B381E090E0AC0102C0440F24
S1130380551F6A95E2F7BA016095622362BB80E06B
S1130390089590E002C0959587956A95E2F781707B
S11303A008951F920F920FB60F9211242F933F932B
S11303B04F935F936F937F938F939F93AF93BF9369
S11303C0EF93FF938FEF84BB85B3809585BBE0915A
S11303D0B400F091B5000995FF91EF91BF91AF91F1
S11303E09F918F917F916F915F914F913F912F9149
S11303F00F900FBE0F901F9018951F920F920FB67B
S11304000F9211242F933F934F935F936F937F9396
S11304108F939F93AF93BF93EF93FF93E091B600B5
S1130420F091B7000995FF91EF91BF91AF919F9122
S11304308F917F916F915F914F913F912F910F9089
S11304400FBE0F901F9018958A3031F050F08B300A
S113045039F08C3031F402C08AE2089583E20895C1
S113046080E0089580E060E170E0E1E0F0E0A0E089
S11304709B01082E02C0220F331F0A94E2F727BB08
S1130480209528BBB09B0DC09F01922F46B350E02E
S1130490022E02C0559547950A94E2F740FD0AC022
S11304A001C090E08F5F292F220F920F890F0E94C5
S11304B0240208952F5F3F4F2430310531F78F5FB9
S11304C08330B0F28A2FD4CF90989198EFECF7E074
S11304D03197F1F700C000009298EFECF7E0319704
S11304E0F1F700C00000982F907F95BBEFECF7E088
S11304F03197F1F700C00000929AEFECF7E03197E2
S1130500F1F700C000009298EFECF7E03197F1F7B3
S113051000C00000F0E18F9FC001112485BB8FEC67
S113052097E00197F1F700C00000929AEFECF7E032
S11305303197F1F700C0000092988FEC97E0019793
S1130540F1F700C0000081E0089581B3876081BBAA
S113055080EF84BB82E00E94640288E20E9464020D
S11305608CE00E94640281E00E94640281E00895AC
S1130570909A9198EFECF7E03197F1F700C0000002
S11305809298EFECF7E03197F1F700C00000982F54
S1130590907F95BBEFECF7E03197F1F700C00000D6
S11305A0929AEFECF7E03197F1F700C000009298CF
S11305B0EFECF7E03197F1F700C00000F0E18F9F16
S11305C0C001112485BB8FEC97E00197F1F700C0BF
S11305D00000929AEFECF7E03197F1F700C00000C9
S11305E092988FEC97E00197F1F700C0000081E04A
S11305F00895CF93DF93EC01909A91988881882392
S113060031F021960E94B80289918111FBCF81E0DB
S1130610DF91CF910895813049F028F0823051F074
S1130620833079F40BC06093B8000BC0605C6093B6
S1130630B80007C0605F6093B80003C0605B60935C
S1130640B8008091B80080680E94640281E0089537
S1130650CF93DF93EA010E940B03CE010E94F902BB
S113066081E0DF91CF91089581E00E94640281E0EE
S113067008958BB340E060E00E94C30089B360E05A
S11306800E94C9018130D1F38BB341E066E00E943E
S1130690C3008BB366E00E9487010E94A50240E676
S11306A050E064E080E00E94280348E650E061E006
S11306B081E00E9428030E94340347E750E060E091
S11306C080E00E94280347E850E060E081E00E9457
S11306D0280381E008950E9432028093B900823099
S11306E069F08330A1F08130D9F40E94340341E8E9
S11306F050E060E080E00E94280327C00E94340399
S113070048E950E060E080E00E9428031EC00E9497
S1130710340340E950E060E080E00E94280315C003
S11307200E9434034DE950E061E080E00E94280318
S11307308BB341E067E00E94C3008BB367E00E9483
S113074087018BB366E00E94490181E00895F89423
S1050750FFCFD5
S113075257656C636F6D6500434F46464545204DB2
S1130762414348494E450053454C4543543A203190
S11307722D535441525400322D494E464F20332DAD
S113078253455454494E4700494E464F0057726FE1
S11107926E672043686F6963655E5F5E0000FA
S9030000FC
