:100000000C942A000C9447000C9447000C94470071
:100010000C9447000C9447000C9447000C94470044
:100020000C9447000C9447000C9447000C94470034
:100030000C9447000C9449000C949D000C947300A0
:100040000C9447000C9447000C9447000C94470014
:100050000C94470011241FBECFE5D8E0DEBFCDBF12
:1000600010E0A0E6B0E0EEE0F3E002C005900D92F3
:10007000AC36B107D9F720E0ACE6B0E001C01D9284
:10008000A037B207E1F70E9478010C9485010C9427
:1000900000001F920F920FB60F9211242F933F93DF
:1000A0004F935F936F937F938F939F93AF93BF9380
:1000B000EF93FF93E0916E00F0916F0009958FEF41
:1000C0008ABB8BBBFF91EF91BF91AF919F918F91B5
:1000D0007F916F915F914F913F912F910F900FBE44
:1000E0000F901F9018951F920F920FB60F92112428
:1000F0002F933F934F935F936F937F938F939F9330
:10010000AF93BF93EF93FF93E0916C00F0916D007C
:1001100009958FEF8ABB8BBBFF91EF91BF91AF9198
:100120009F918F917F916F915F914F913F912F910F
:100130000F900FBE0F901F9018951F920F920FB641
:100140000F9211242F933F934F935F936F937F935D
:100150008F939F93AF93BF93EF93FF93E0916C00C6
:10016000F0916D0009958FEF8ABB8BBBFF91EF91EA
:10017000BF91AF919F918F917F916F915F914F91BF
:100180003F912F910F900FBE0F901F901895FC017B
:10019000009709F4A7C080B5806880BD8781811170
:1001A00003C080B58F7B80BD8085811107C080B57D
:1001B0008F7E80BD80B58F7D80BD0FC0813039F4CA
:1001C00080B58F7E80BD80B5806280BD06C080B561
:1001D000806180BD80B5806280BD8185811104C051
:1001E00080B5877F80BD03C080B5886080BD828573
:1001F000833041F480B5826080BD80B5846080BD6D
:1002000052982DC081110AC080B58D7F80BD80B508
:100210008B7F80BD80B58B7F80BD21C0813051F444
:1002200080B5826080BD80B58B7F80BD80B58B7FBF
:1002300080BD15C0823051F480B58D7F80BD80B502
:10024000846080BD80B58B7F80BD09C080B5826031
:1002500080BD80B5846080BD80B5846080BD8385AD
:10026000811104C080B58E7F80BD03C080B58160E0
:1002700080BD8181813011F4549A01C054988081ED
:10028000813011F4539A01C053988381813011F465
:10029000569A01C056988281813011F4579A01C054
:1002A00057988481813011F4559A01C05598858101
:1002B0009681803825E2920721F483E389B910BC46
:1002C0000CC0803629E0920719F419B810BC05C09B
:1002D000803C924111F419B810BC8FB780688FBF71
:1002E00081E0089580E008955F9BFECF8CB1089572
:1002F0008FEF87BB80E690E00E94C700CAE00E94B3
:0E030000740188BBC150D9F7FFCFF894FFCF2E
:0C030E0001010101018025000000030036
:00000001FF
