:100000000C942A000C9447000C9447000C94470071
:100010000C9447000C9447000C9447000C94880201
:100020000C9447000C9447000C9447000C94470034
:100030000C9447000C9447000C9447000C94470024
:100040000C9447000C9447000C9447000C94470014
:100050000C94470011241FBECFE5D8E0DEBFCDBF12
:1000600010E0A0E6B0E0EEEBFCE002C005900D92DF
:10007000A836B107D9F723E0A8E6B0E001C01D9289
:10008000A331B207E1F70E94A9020C945D060C941B
:100090000000CF93DF93EC010E943E044091680082
:1000A000509169009E01240F351F283582E03807E2
:1000B00058F44217530758F4EA01C659DF4F3093FA
:1000C00069002093680005C0C0E0D0E002C0C0E035
:1000D000D0E00E9408058C2F9D2FDF91CF910895CD
:1000E0000895FC010396928381832FEF3FEF3483C1
:1000F0002383968385839087878310820895FC01EC
:10010000118610860895CF93DF93FC01DB012181D6
:100110003281E9018A819B8113969C938E93129779
:100120008181928115969C938E9314978A819B81ED
:10013000EC017D836C83E9017B836A837283618335
:100140001996FC93EE93189780818F5F8083DF91DF
:10015000CF910895CF93DF93EB01488159814F3FB1
:100160002FEF520731F4DC011796ED91FC911897AF
:1001700017C0FC013396DC0115962D913C91169722
:10018000D9012D913C914217530750F00280F38121
:10019000E02DA281B3812D913C9142175307B0F716
:1001A000A281B381BB83AA831596DC93CE93149767
:1001B000FD83EC83D383C28399878887FC012081E8
:1001C0002F5F2083DF91CF910895FC01A281B3813D
:1001D0008481958115969C938E931497A481B58103
:1001E0008281938113969C938E931297A085B185FB
:1001F00011968D919C9112978E179F0731F48481EF
:10020000958112969C938E931197118610868C91EE
:1002100081508C93089531E1FC013083319722E2C3
:100220002083FC013297A3E3A083FC013397608312
:10023000FC0134977083FC0135971082FC013697DE
:1002400060E86083FC0137971082FC01389762E018
:100250006083FC01399763E06083FC013A9764E0B6
:100260006083FC013B9765E06083FC013C9766E09E
:100270006083FC013D9767E06083FC013E9768E086
:100280006083FC013F9769E06083FC01709760E147
:100290006083FC0171973083FC01729732E13083F7
:1002A000FC01739733E13083FC01749734E13083B0
:1002B000FC01759735E13083FC01769736E1308398
:1002C000FC01779737E13083FC01789738E1308380
:1002D000FC01799739E13083FC017A9730E2308371
:1002E000FC017B9731E23083FC017C972083FC0189
:1002F0007D9723E22083FC017E974083FC017F975A
:100300005083FC01B09726E22083FC01B19727E2DD
:100310002083FC01B29728E22083FC01B39729E2F5
:100320002083FC01B49720E32083FC01B59721E3EF
:1003300020839C0126523109822F932F08951BBCE4
:100340008CE78ABD8BE08EBD89B7806189BFA091A3
:10035000D002B091D102CD91CDBFDD91DEBFFF9132
:10036000EF91DF91CF91BF91AF919F918F917F914D
:100370006F915F914F913F912F911F910F91FF903E
:10038000EF90DF90CF90BF90AF909F908F907F9035
:100390006F905F904F903F902F901F900F900FBEE7
:1003A0000F90089581E008950F920FB6F8940F9280
:1003B0001F9211242F923F924F925F926F927F92E1
:1003C0008F929F92AF92BF92CF92DF92EF92FF9265
:1003D0000F931F932F933F934F935F936F937F934D
:1003E0008F939F93AF93BF93CF93DF93EF93FF933D
:1003F000A091D002B091D1020DB60D920EB60D9221
:100400000E94EA05A091D002B091D102CD91CDBF5A
:10041000DD91DEBFFF91EF91DF91CF91BF91AF9161
:100420009F918F917F916F915F914F913F912F910C
:100430001F910F91FF90EF90DF90CF90BF90AF9002
:100440009F908F907F906F905F904F903F902F90F4
:100450001F900F900FBE0F9008950F920FB6F89453
:100460000F921F9211242F923F924F925F926F92A0
:100470007F928F929F92AF92BF92CF92DF92EF9234
:10048000FF920F931F932F933F934F935F936F931D
:100490007F938F939F93AF93BF93CF93DF93EF930C
:1004A000FF93A091D002B091D1020DB60D920EB67D
:1004B0000D920E9444040E94EA05A091D002B091DE
:1004C000D102CD91CDBFDD91DEBFFF91EF91DF91E4
:1004D000CF91BF91AF919F918F917F916F915F91DC
:1004E0004F913F912F911F910F91FF90EF90DF90CF
:1004F000CF90BF90AF909F908F907F906F905F90C4
:100500004F903F902F901F900F900FBE0F90089527
:100510000E942D021895C2E082B38C2782BB8BE724
:1005200092E90197F1F700C000008FE090E00E948F
:10053000CA05F2CFC1E082B38C2782BB87EA91E67D
:100540000197F1F700C000008AE090E00E94CA0520
:10055000F2CFAF92BF92CF92DF92EF92FF920F93C2
:1005600081B3836081BBA12CB12CC12CD12CE12C97
:10057000F12C02E020E030E044E650E060E070E082
:100580008BE892E00E94120303E020E030E044E6B2
:1005900050E060E070E08AE992E00E9412030E945D
:1005A000130480E090E00F91FF90EF90DF90CF90E8
:1005B000BF90AF900895CF93DF93EC01E091D0020C
:1005C000F091D102938382838091C8029091C902F5
:1005D000C817D90768F46091D0027091D102809158
:1005E000CC029091CD026E5F7F4F0E94AA0017C08F
:1005F0006091D0027091D1028091CE029091CF0291
:100600006E5F7F4F0E94AA00809160009091610010
:10061000C817D90720F4D0936100C0936000DF9120
:10062000CF9108954F925F926F927F928F929F9297
:10063000AF92BF92CF92DF92EF92FF920F931F93F0
:10064000CF93DF934C013B015A01290181E290E0F5
:100650000E944900EC01009709F4D3C0C114D104F1
:1006600009F0CCC0C5010E9449006C01988F8F8BA6
:10067000009721F4CE010E947000C3C0A50165EA75
:1006800070E0C6010E94470681E0A81AB1088F8970
:10069000988DA80EB91E48E050E0B301CE014996EE
:1006A0000E944E0618A2102F033008F012E01E8B95
:1006B0006E01E2E0CE0ED11CC6010E947F00CE0189
:1006C0000C960E947F00D987C88783E090E0811B49
:1006D00091099D878C87DB8BCA8BA201B401C50170
:1006E0000E940B0199838883E114F10419F0F7014A
:1006F000D183C0830FB6F8940F928091CA028F5FA6
:100700008093CA028091D0029091D102892B89F501
:10071000D093D102C093D0028091CA028130C1F53A
:1007200084ED92E00E9471008DED92E00E947100D4
:1007300086EE92E00E9471008FEE92E00E947100BE
:1007400088EF92E00E94710081E093E00E947100C6
:100750008AE093E00E9471008FEE92E09093CF02C6
:100760008093CE0288EF92E09093CD028093CC02EA
:100770000FC08091C60281110BC0E091D002F091B0
:10078000D1028689081720F0D093D102C093D002FD
:100790008E899091D202981710F48093D202909192
:1007A000D3029F5F9093D3029091C702981710F4E1
:1007B0008093C70290E09C01220F331F220F331F4A
:1007C000220F331F820F931FB6018C529D4F0E9440
:1007D00083000F900FBE8091C602882359F0E091EC
:1007E000D002F091D1028689801730F40E94D401A2
:1007F00081E008C081E006C081E004C0D88ECF8AC5
:100800003DCF8FEFDF91CF911F910F91FF90EF9030
:10081000DF90CF90BF90AF909F908F907F906F9020
:100820005F904F900895AF92BF92CF92DF92EF9278
:10083000FF920F93A12CB12CC12CD12CE12CF12CC7
:1008400000E020E030E045E550E062E670E086E957
:1008500095E00E941203813049F4F8948093C60217
:100860001092C9021092C8020E949F010F91FF903E
:10087000EF90DF90CF90BF90AF9008958091C50228
:100880008F5F8093C50208950F931F93CF93DF93DB
:100890008091C5028111B2C08091C8029091C902B5
:1008A00001969093C9028093C8028091C8029091EA
:1008B000C902892B99F58091CE029091CF022091A7
:1008C000CC023091CD023093CF022093CE02909390
:1008D000CD028093CC028091C2028F5F8093C202CE
:1008E000E091CE02F091CF028081811107C08FEF9D
:1008F0009FEF909361008093600010C0E091CE0262
:10090000F091CF020580F681E02D0680F781E02D81
:100910008281938190936100809360002091C8024E
:100920003091C902809160009091610028173907C9
:1009300008F469C0E091CE02F091CF028081882353
:1009400099F0E091CE02F091CF020580F681E02D82
:10095000C681D7818A819B812091C8023091C902CA
:1009600028173907F8F419C08FEF9FEF90936100B3
:100970008093600048C0E091CE02F091CF020580E4
:10098000F681E02DC681D7818A819B812091C802A2
:100990003091C9022817390728F490936100809399
:1009A000600031C08E010E5F1F4FC8010E94E5003C
:1009B0008C899D89892B21F0CE010C960E94E5003F
:1009C0008E899091C702981710F48093C70290E027
:1009D0009C01220F331F220F331F220F331F820F60
:1009E000931FB8018C529D4F0E948300E091CE026C
:1009F000F091CF0280818111BECFB6CF8091C40229
:100A00008F5F8093C402DF91CF911F910F91089562
:100A1000AF92BF92CF92DF92EF92FF920F931F930C
:100A2000CF93DF930FB6F8940F928091C502815057
:100A30008093C5028091C502811168C08091CA026D
:100A4000811130C066C0D601ED91FC91C681D7817D
:100A5000CE010C960E94E5008E010E5F1F4FC8016B
:100A60000E94E5008E899091C702981710F4809338
:100A7000C70290E09C01220F331F220F331F220F69
:100A8000331F820F931FB8018C529D4F0E94830029
:100A9000E091D002F091D1029E898689981788F062
:100AA000BA2C0FC0B12C0F2EF1E0EF2EF3E0FF2E89
:100AB000F02D0F2EF6E0CF2EF3E0DF2EF02DAA243E
:100AC000A394F70180818111BECF8091C402882355
:100AD00081F08091C402882399F00E94440480919F
:100AE000C40281508093C4028091C4028111F5CF69
:100AF00007C0F1E0BF1621F08091C302813041F4BC
:100B00001092C3020E94D40181E003C080E001C0C2
:100B100080E00F900FBEDF91CF911F910F91FF905A
:100B2000EF90DF90CF90BF90AF9008950AE013E070
:100B30000F2EFFE0EF2EF3E0FF2EF02D8091CB0281
:100B40008823E1F30E943E04D801CC910E9408055D
:100B5000CC23A1F30FB6F8940F92D701ED91FC913D
:100B6000C681D781CE0102960E94E5008091CA021B
:100B700081508093CA028091CB0281508093CB0236
:100B80000F900FBE8F89988D0E947000CE010E9439
:100B90007000D4CFCF93DF93EC010097B1F00E94A7
:100BA0003E048091C8029091C902C80FD91F80915C
:100BB000D0029091D10202960E94E500CE010E94DF
:100BC000DB020E940805811102C00E94D401DF915E
:100BD000CF9108958091C502811113C08091C70201
:100BE00090E0FC01EE0FFF1FEE0FFF1FEE0FFF1F47
:100BF0008E0F9F1FFC01EC52FD4F8081882329F04E
:100C00001BC081E08093C30208958091C702815088
:100C10008093C7028091C70290E0FC01EE0FFF1F96
:100C2000EE0FFF1FEE0FFF1F8E0F9F1FFC01EC52F8
:100C3000FD4F8081882349F3E091C702F0E0CF01A6
:100C4000880F991F880F991F880F991FE80FF91FA8
:100C5000EC52FD4FA181B28112960D90BC91A02D56
:100C6000B283A183CF010396A817B90731F4129676
:100C70008D919C911397928381830180F281E02D65
:100C8000868197819093D1028093D0020895DC01F0
:100C900001C06D9341505040E0F70895FB01DC0125
:100CA0004150504048F001900D920020C9F701C01A
:0E0CB0001D9241505040E0F70895F894FFCF98
:080CBE00FFFF49444C45000012
:00000001FF
