:100000000C942A000C9447000C9447000C94470071
:100010000C9447000C9447000C9447000C94470044
:100020000C9447000C9447000C9447000C94470034
:100030000C9447000C9447000C9447000C94470024
:100040000C9449000C9447000C9447000C94470012
:100050000C94470011241FBECFE5D8E0DEBFCDBF12
:1000600010E0A0E6B0E0E0EBF6E002C005900D92F3
:10007000AA37B107D9F720E0AAE7B0E001C01D9286
:10008000AD37B207E1F70E940D020C9456030C94B1
:1000900000001F920F920FB60F9211242F933F93DF
:1000A0004F935F936F937F938F939F93AF93BF9380
:1000B000EF93FF93E0917A00F0917B000995FF9117
:1000C000EF91BF91AF919F918F917F916F915F91D0
:1000D0004F913F912F910F900FBE0F901F90189549
:1000E000FC01009731F18081918190937B00809396
:1000F0007A00379A8FB780688FBF339A83818111D6
:1001000005C087B18F7387B981E00CC0813011F4CD
:100110003F9808C0823029F487B1806C87B981E0AC
:1001200001C080E09281963031F496B1976096B923
:10013000089580E0089580E008958830B8F49AB377
:1001400041E050E09A01082E02C0220F331F0A94AA
:10015000E2F7292B2ABB27B197B1907F922B892BED
:1001600087B986B1806686B981E0089580E00895F8
:1001700090989198EFECF7E03197F1F700C000000C
:100180009298EFECF7E03197F1F700C0000085BBE3
:100190008FEC97E00197F1F700C00000929AEFEC26
:1001A000F7E03197F1F700C0000092988FEC97E0EC
:1001B0000197F1F700C0000081E0089581B38760E6
:1001C00081BB8FEF84BB88E30E94B8008CE00E9463
:1001D000B80081E00E94B80081E00895909A91985B
:1001E000EFECF7E03197F1F700C000009298EFECE8
:1001F000F7E03197F1F700C0000085BB8FEC97E086
:100200000197F1F700C00000929AEFECF7E0319708
:10021000F1F700C0000092988FEC97E00197F1F79A
:1002200000C0000081E00895CF93DF93EC01909A25
:1002300091988881882331F021960E94EE0089915F
:100240008111FBCF81E0DF91CF910895813049F09A
:1002500028F0823051F0833079F40BC060937C0039
:100260000BC0605C60937C0007C0605F60937C00A3
:1002700003C0605B60937C0080917C0080680E947A
:10028000B80081E00895CF93DF93EA010E94260130
:10029000CE010E94140181E0DF91CF910895CF92A9
:1002A000DF92EF92FF920F931F93CF93DF93CDB71F
:1002B000DEB72B970FB6F894DEBF0FBECDBF8BE035
:1002C000E2E6F0E0DE01119601900D928A95E1F7E9
:1002D00024B135B1932F80E0BC01620F711D80E025
:1002E00090E00E94590226EF38E24CE950E40E9467
:1002F000BF020E942D026B017C018B019B01369590
:10030000279536952795ABE7B4E10E944A03AC01E7
:10031000569547959A01ADECBCEC0E944A03969520
:10032000879596958795969587959C01220F331F03
:10033000880F991F880F991F880F991F820F931F8D
:10034000481B590BE1E0F0E0EC0FFD1FE40FF51F37
:10035000408150E064E081E00E9443019601ADECF1
:10036000BCEC0E944A037C01F694E794F694E7946F
:10037000F694E79497010E944A039695879596957F
:100380008795969587959C01220F331F880F991F9B
:10039000880F991F880F991F820F931FF701E81B81
:1003A000F90B81E090E08C0F9D1FE80FF91F408151
:1003B00050E065E081E00E94430140E650E066E0E5
:1003C00081E00E944301C701880F991FEE0CFF1CBA
:1003D000EE0CFF1CEE0CFF1CE80EF91E0E191F0997
:1003E000E1E0F0E0EC0FFD1FE00FF11F408150E075
:1003F00067E081E00E94430184B188BB2B960FB671
:10040000F894DEBF0FBECDBFDF91CF911F910F914A
:10041000FF90EF90DF90CF900895CF93DF9300D0BF
:1004200000D0CDB7DEB78FEF87BB8FE491E09A8322
:10043000898386E08B8382E08C830E94DE004DE618
:1004400050E062E080E00E944301CE0101960E94EC
:10045000700080E00E949D00FFCF70D088F09F5711
:1004600090F0B92F9927B751A0F0D1F0660F771F00
:10047000881F991F1AF0BA95C9F712C0B13081F0E0
:1004800077D0B1E0089574C0672F782F8827B85FC0
:1004900039F0B93FCCF3869577956795B395D9F741
:1004A0003EF490958095709561957F4F8F4F9F4F4B
:1004B0000895E89409C097FB3EF490958095709557
:1004C00061957F4F8F4F9F4F9923A9F0F92F96E9A0
:1004D000BB279395F695879577956795B795F11115
:1004E000F8CFFAF4BB0F11F460FF1BC06F5F7F4FB2
:1004F0008F4F9F4F16C0882311F096E911C07723C4
:1005000021F09EE8872F762F05C0662371F096E8CC
:10051000862F70E060E02AF09A95660F771F881F9B
:10052000DAF7880F9695879597F9089557FD9058B3
:10053000440F551F59F05F3F71F04795880F97FBA7
:10054000991F61F09F3F79F0879508951216130661
:100550001406551FF2CF4695F1DF08C01616170690
:100560001806991FF1CF86957105610508940895C5
:10057000E894BB2766277727CB0197F908950BD01E
:1005800078C069D028F06ED018F0952309F05AC0D1
:100590005FC01124EECFCADFA0F3959FD1F3950F72
:1005A00050E0551F629FF001729FBB27F00DB11DF7
:1005B000639FAA27F00DB11DAA1F649F6627B00D87
:1005C000A11D661F829F2227B00DA11D621F739F70
:1005D000B00DA11D621F839FA00D611D221F749F7E
:1005E0003327A00D611D231F849F600D211D822FC5
:1005F000762F6A2F11249F5750408AF0E1F088230C
:100600004AF0EE0FFF1FBB1F661F771F881F915018
:100610005040A9F79E3F510570F014C0AACF5F3F2C
:10062000ECF3983EDCF3869577956795B795F7954B
:10063000E7959F5FC1F7FE2B880F911D96958795D3
:1006400097F9089597F99F6780E870E060E0089552
:100650009FEF80EC089500240A94161617061806DA
:100660000906089500240A941216130614060506B6
:100670000895092E0394000C11F4882352F0BB0F47
:1006800040F4BF2B11F460FF04C06F5F7F4F8F4FAA
:100690009F4F0895A29FB001B39FC001A39F01D0B7
:1006A000B29F700D811D1124911D0895F894FFCF04
:1006B0002E0030313233343536373839005448451E
:0A06C0002054454D502049532000FE
:00000001FF
