S01200005350495F4472697665722E737265635B
S11300000C942A000C943F000C943F000C943F0085
S11300100C943F000C943F000C943F000C943F0060
S11300200C943F000C943F000C943F000C943F0050
S11300300C9441000C943F000C943F000C943F003E
S11300400C943F000C943F000C943F000C943F0030
S11300500C943F0011241FBECFE5D8E0DEBFCDBF16
S113006010E0A0E6B0E0E8EFF1E002C005900D92E8
S1130070A836B107D9F70E9497000C94FA000C94A3
S113008000001F920F920FB60F9211240F900FBE13
S11300900F901F901895FC010097C1F1BC9ABD9A6E
S11300A0BE98BF9A8681813011F46F9A01C06F980F
S11300B08781813011F46D9A01C06D9880818130FF
S11300C011F46C9A01C06C988481813011F46B9A9C
S11300D001C06B988581813011F46A9A01C06A98D5
S11300E09DB18181892B8DB98381813011F4709AFE
S11300F001C070988281813011F46E9A01C06E98AB
S113010080E58DB9D09A8FB780688FBF81E008955C
S11301106115710551F06C9A8FB9779BFECF8FB141
S1130120FB018083D89A81E0089580E00895CF93FD
S1130130DF9300D000D01F92CDB7DEB79FEA99833A
S11301408AEF8A839B838C8380E690E00E944B0035
S11301508E010F5F1F4F7E0124E0E20EF11CDD24AF
S1130160DA945801BE016B5F7F4FF80181918F01D2
S11301700E948800D2BAFFE32DE083E0F1502040D2
S11301808040E1F700C00000BE016B5F7F4FF501C6
S113019080810E94880012BAFFE32DE083E0F150D1
S11301A020408040E1F700C000000E151F05C9F68D
S11301B01FEFBE016B5F7F4F80E00E94880012BB7F
S11301C09FE3EDE0F3E09150E040F040E1F700C040
S11301D00000BE016B5F7F4F812F0E94880012BA1E
S11301E02FE38DE093E0215080409040E1F700C080
S10B01F00000DFCFF894FFCFFB
S10B01F80100010000010101F6
S9030000FC
