:100000000C942A000C9447000C9447000C94470071
:100010000C9447000C9447000C9447000C94470044
:100020000C9447000C9447000C9447000C9450002B
:100030000C9447000C9447000C9447000C94470024
:100040000C9447000C9447000C9447000C94470014
:100050000C94470011241FBECFE5D8E0DEBFCDBF12
:1000600010E0A0E6B0E0E2E9F5E002C005900D92F4
:10007000AA36B107D9F720E0AAE6B0E001C01D9288
:10008000AD38B207E1F70E9485020C94C7020C94C8
:1000900000008FB780688FBF89B7816089BF0895DE
:1000A0001F920F920FB60F9211242F933F934F93ED
:1000B0005F936F937F938F939F93AF93BF93EF93D0
:1000C000FF93E0916A00F0916B000995FF91EF9129
:1000D000BF91AF919F918F917F916F915F914F9160
:1000E0003F912F910F900FBE0F901F901895CF93B7
:1000F000DF93EC01009709F445C08981882309F456
:1001000043C09881992309F441C08A81882309F466
:100110003FC061157105F1F170936B0060936A0047
:100120009335C9F4813021F483B7877B83BF0BC03B
:10013000823021F483B7886083BF05C0833019F40F
:1001400083B7886483BF0E944900E881F0E0898119
:10015000808381E022C09534F9F4813021F483B7A3
:10016000877B83BF0BC0823021F483B7886083BF55
:1001700005C0833019F483B7886483BF0E944900A7
:1001800081E00BC08DEC09C08DEC07C08DEC05C083
:100190008DEC03C08DEC01C08DECDF91CF91089503
:1001A00041155105D1F130916D003323D9F090E024
:1001B000A82FB0E011964FEF4C93E92FF0E0E259F1
:1001C000FF4FE081F0E0EE0FFF1FE159FF4F80830A
:1001D00061839F5F232F291B921770F320936D007B
:1001E00081E0089590916C009430C8F4E82FF0E01D
:1001F0009FEF918390916C00E92FF0E0EE0FFF1FCD
:10020000E159FF4F80836183FA01908380916C00F4
:100210008F5F80936C0081E0089580E0089580E016
:10022000089590916C00943050F56A3050F590E04C
:10023000FC01EE0FFF1FE159FF4F2081222319F12E
:10024000FC01EE0FFF1FE159FF4F818181110AC0B0
:10025000E22FF0E0A62FB0E0A05ABF4F8C9182832E
:1002600081E00895813089F4E22FF0E0A62FB0E01C
:10027000A05ABF4F8C918095828381E0089580E0E1
:10028000089580E0089580E0089580E00895209129
:100290007F00222359F0A7E7B0E080E0ED91FD91C7
:1002A0009481915094838F5F8217C0F308958634B0
:1002B00061F0662361F08091800081110AC0609333
:1002C000810081E080938000089580E0089580E0BF
:1002D000089580E008950F931F93CF93DF930097C5
:1002E00009F443C0623008F042C02115310509F419
:1002F00040C0442309F43FC0509180005523E9F1E8
:1003000070917F007430D8F5E0917700F09178001B
:10031000309771F02E173F07A1F1C9E7D0E0E1E077
:10032000F0E08F01A991B9911097B1F450E003C0AA
:1003300000E010E051E0F801EE0FFF1FE958FF4F19
:1003400031832083F90192838183408363834483D3
:100350007F5F70937F0018C02A173B07A1F031968A
:10036000E430F105F1F650E00FC050E00DC050E070
:100370000BC050E009C050E007C050E005C050E09D
:1003800003C051E001C050E0852FDF91CF911F9154
:100390000F910895009759F1A0917F00AA2349F188
:1003A000209177003091780028173907C1F409C0EF
:1003B000B901419151912F5F3F4F4817590799F467
:1003C00002C060E070E0FB01EE0FFF1FE958FF4F35
:1003D00011821082A150A0937F0081E00895E9E787
:1003E000F0E021E030E02A1718F381E0089580E082
:1003F000089580E00895FF920F931F93CF93DF93AA
:1004000080917F00882369F110E001E0F12CC12F79
:10041000D0E0FE01EE0FFF1FE958FF4F0190F08181
:10042000E02D84811816B4F00180F281E02D099549
:10043000CC0FDD1FC958DF4FE881F981838181111D
:1004400004C0CF010E94CA0106C094818081890F37
:10045000848301C00F2D1F5F80917F001817B8F2B1
:1004600001C001E0802FDF91CF911F910F91FF908C
:100470000895609182006F5F609382008091860092
:100480000E941101809182008A30F0F11092820066
:1004900060E0809186000E941101609183006F5F8F
:1004A00060938300809185000E94110180918300F8
:1004B000873050F11092830060E0809185000E94A7
:1004C000110160918400862F8F5F8093840080915A
:1004D0008C000E941101809184008A30A8F0109253
:1004E0008400109283001092820060E08091860068
:1004F0000E94110160E0809185000E94110160E07E
:1005000080918C000E9411010895CF93DF9300D059
:100510001F92CDB7DEB783E5898383E08A8381E0CC
:100520008B8346E850E061E080E30E94D00045E81C
:1005300050E061E083E30E94D0004CE850E061E0CD
:1005400086E30E94D0006AE083E50E94570160E0E4
:10055000809186000E94110160E0809185000E94D8
:10056000110160E080918C000E94110167E471E04C
:10057000CE0101960E94770027E830E044E661E072
:1005800089E392E00E946B010E94FB01FDCFF89489
:02059000FFCF9B
:0A0592003F065B4F666D7D077F6F2B
:00000001FF
