S01A00005761766547656E65726174696F6E5F50574D2E7372656318
S11300000C942A000C9434000C9434000C943400A6
S11300100C9434000C9434000C9434000C9434008C
S11300200C9434000C9434000C9434000C9434007C
S11300300C9434000C9434000C9434000C9434006C
S11300400C9434000C9434000C9434000C9434005C
S11300500C94340011241FBECFE5D8E0DEBFCDBF21
S11300600E9436000C9450000C940000BB9A83E666
S11300708CBF83B7896783BF8D9A81E08BBD82E390
S11300808ABD8FB582688FBD8EB58A608EBD8C9A0D
S113009019BC8CEC88BD82EB8FBD8AE08EBDFFCF8E
S10700A0F894FFCFFE
S9030000FC
