S0100000736166655F4170702E73726563F5
S11300000C942A000C9447000C9447000C9447006D
S11300100C9447000C9447000C9447000C94470040
S11300200C9447000C9447000C9447000C94470030
S11300300C9447000C9415010C9463010C943C013E
S11300400C9447000C9447000C9447000C94470010
S11300500C94470011241FBECFE5D8E0DEBFCDBF0E
S113006010E0A0E6B0E0E2EDF4E002C005900D92ED
S1130070AC36B107D9F720E0ACE6B0E001C01D9280
S1130080A137B207E1F70E943B020C9467020C947B
S113009000008A3031F050F08B3039F08C3031F47C
S11300A002C08AE2089583E2089580E0089580E022
S11300B060E170E0E1E0F0E0A0E09B01082E02C006
S11300C0220F331F0A94E2F724BB209525BB989B8B
S11300D00DC09F01922F43B350E0022E02C05595EC
S11300E047950A94E2F740FD0AC001C090E08F5F93
S11300F0292F220F920F890F0E94490008952F5F24
S11301003F4F2430310531F78F5F8330B0F28A2FAF
S1130110D4CF413009F041C0823071F42AB381E078
S113012090E0AC0102C0440F551F6A95E2F7BA0192
S1130130622B6ABB81E00895833071F427B381E0B8
S113014090E0AC0102C0440F551F6A95E2F7BA0172
S1130150622B67BB81E00895843071F424B381E09D
S113016090E0AC0102C0440F551F6A95E2F7BA0152
S1130170622B64BB81E00895853009F052C021B33D
S113018081E090E0AC0102C0440F551F6A95E2F78C
S1130190BA01622B61BB81E00895823079F42AB3FD
S11301A081E090E0AC0102C0440F551F6A95E2F76C
S11301B0BA01609562236ABB81E00895833079F4C3
S11301C027B381E090E0AC0102C0440F551F6A954B
S11301D0E2F7BA016095622367BB81E00895843039
S11301E079F424B381E090E0AC0102C0440F551FC0
S11301F06A95E2F7BA016095622364BB81E00895D1
S1130200853089F421B381E090E0AC0102C0440F51
S1130210551F6A95E2F7BA016095622361BB81E0DC
S1130220089580E0089580E008951F920F920FB61C
S11302300F9211242F933F934F935F936F937F9368
S11302408F939F93AF93BF93EF93FF93E0916C00D1
S1130250F0916D000995FF91EF91BF91AF919F913E
S11302608F917F916F915F914F913F912F910F905B
S11302700FBE0F901F9018951F920F920FB60F92FA
S113028011242F933F934F935F936F937F938F9397
S11302909F93AF93BF93EF93FF93E0916E00F09120
S11302A06F000995FF91EF91BF91AF919F918F914D
S11302B07F916F915F914F913F912F910F900FBE5E
S11302C00F901F9018951F920F920FB60F92112442
S11302D02F933F934F935F936F937F938F939F934A
S11302E0AF93BF93EF93FF93E0916E00F0916F0093
S11302F00995FF91EF91BF91AF919F918F917F915C
S11303006F915F914F913F912F910F900FBE0F907E
S11303101F901895FC01009709F4A7C080B5806868
S113032080BD8781811103C080B58F7B80BD8085AE
S1130330811107C080B58F7E80BD80B58F7D80BD63
S11303400FC0813039F480B58F7E80BD80B5806266
S113035080BD06C080B5806180BD80B5806280BDEF
S11303608185811104C080B5877F80BD03C080B5BD
S1130370886080BD8285833041F480B5826080BD11
S113038080B5846080BD52982DC081110AC080B5AB
S11303908D7F80BD80B58B7F80BD80B58B7F80BD18
S11303A021C0813051F480B5826080BD80B58B7FDF
S11303B080BD80B58B7F80BD15C0823051F480B57F
S11303C08D7F80BD80B5846080BD80B58B7F80BD0E
S11303D009C080B5826080BD80B5846080BD80B571
S11303E0846080BD8385811104C080B58E7F80BD0B
S11303F003C080B5816080BD8181813011F4549A3D
S113040001C054988081813011F4539A01C05398EB
S11304108381813011F4569A01C0569882818130CB
S113042011F4579A01C057988481813011F4559A78
S113043001C0559885819681803825E2920721F480
S113044083E389B910BC0CC0803629E0920719F403
S113045019B810BC05C0803C924111F419B810BC05
S11304608FB780688FBF81E0089580E008958CB9CC
S11304705D9BFECF08950E9440020E944A02FDCF78
S113048088B340E065E00E94890080E690E00E9425
S11304908A010895CF93DF93C0E0D1E001C0CD2F4E
S11304A00E945700809370000E9437022FE986E86B
S11304B091E0215080409040E1F700C00000B599E0
S11304C0EECFCF5FC43060F3DF91CF910895F894FD
S10504D0FFCF58
S10F04D20101010101802500000003006D
S9030000FC
